{
  "contractName": "PetShop",
  "abi": [
    {
      "inputs": [
        {
          "internalType": "string",
          "name": "name_",
          "type": "string"
        },
        {
          "internalType": "string",
          "name": "symbol_",
          "type": "string"
        },
        {
          "internalType": "string",
          "name": "baseURI_",
          "type": "string"
        }
      ],
      "stateMutability": "nonpayable",
      "type": "constructor"
    },
    {
      "anonymous": false,
      "inputs": [
        {
          "indexed": true,
          "internalType": "address",
          "name": "owner",
          "type": "address"
        },
        {
          "indexed": true,
          "internalType": "address",
          "name": "approved",
          "type": "address"
        },
        {
          "indexed": true,
          "internalType": "uint256",
          "name": "tokenId",
          "type": "uint256"
        }
      ],
      "name": "Approval",
      "type": "event"
    },
    {
      "anonymous": false,
      "inputs": [
        {
          "indexed": true,
          "internalType": "address",
          "name": "owner",
          "type": "address"
        },
        {
          "indexed": true,
          "internalType": "address",
          "name": "operator",
          "type": "address"
        },
        {
          "indexed": false,
          "internalType": "bool",
          "name": "approved",
          "type": "bool"
        }
      ],
      "name": "ApprovalForAll",
      "type": "event"
    },
    {
      "anonymous": false,
      "inputs": [
        {
          "indexed": true,
          "internalType": "address",
          "name": "from",
          "type": "address"
        },
        {
          "indexed": true,
          "internalType": "address",
          "name": "to",
          "type": "address"
        },
        {
          "indexed": true,
          "internalType": "uint256",
          "name": "tokenId",
          "type": "uint256"
        }
      ],
      "name": "Transfer",
      "type": "event"
    },
    {
      "inputs": [],
      "name": "_owner",
      "outputs": [
        {
          "internalType": "address",
          "name": "",
          "type": "address"
        }
      ],
      "stateMutability": "view",
      "type": "function",
      "constant": true
    },
    {
      "inputs": [
        {
          "internalType": "address",
          "name": "to",
          "type": "address"
        },
        {
          "internalType": "uint256",
          "name": "tokenId",
          "type": "uint256"
        }
      ],
      "name": "approve",
      "outputs": [],
      "stateMutability": "nonpayable",
      "type": "function"
    },
    {
      "inputs": [
        {
          "internalType": "address",
          "name": "owner",
          "type": "address"
        }
      ],
      "name": "balanceOf",
      "outputs": [
        {
          "internalType": "uint256",
          "name": "",
          "type": "uint256"
        }
      ],
      "stateMutability": "view",
      "type": "function",
      "constant": true
    },
    {
      "inputs": [
        {
          "internalType": "uint256",
          "name": "tokenId",
          "type": "uint256"
        }
      ],
      "name": "getApproved",
      "outputs": [
        {
          "internalType": "address",
          "name": "",
          "type": "address"
        }
      ],
      "stateMutability": "view",
      "type": "function",
      "constant": true
    },
    {
      "inputs": [
        {
          "internalType": "address",
          "name": "owner",
          "type": "address"
        },
        {
          "internalType": "address",
          "name": "operator",
          "type": "address"
        }
      ],
      "name": "isApprovedForAll",
      "outputs": [
        {
          "internalType": "bool",
          "name": "",
          "type": "bool"
        }
      ],
      "stateMutability": "view",
      "type": "function",
      "constant": true
    },
    {
      "inputs": [],
      "name": "name",
      "outputs": [
        {
          "internalType": "string",
          "name": "",
          "type": "string"
        }
      ],
      "stateMutability": "view",
      "type": "function",
      "constant": true
    },
    {
      "inputs": [
        {
          "internalType": "uint256",
          "name": "tokenId",
          "type": "uint256"
        }
      ],
      "name": "ownerOf",
      "outputs": [
        {
          "internalType": "address",
          "name": "",
          "type": "address"
        }
      ],
      "stateMutability": "view",
      "type": "function",
      "constant": true
    },
    {
      "inputs": [
        {
          "internalType": "address",
          "name": "from",
          "type": "address"
        },
        {
          "internalType": "address",
          "name": "to",
          "type": "address"
        },
        {
          "internalType": "uint256",
          "name": "tokenId",
          "type": "uint256"
        }
      ],
      "name": "safeTransferFrom",
      "outputs": [],
      "stateMutability": "nonpayable",
      "type": "function"
    },
    {
      "inputs": [
        {
          "internalType": "address",
          "name": "from",
          "type": "address"
        },
        {
          "internalType": "address",
          "name": "to",
          "type": "address"
        },
        {
          "internalType": "uint256",
          "name": "tokenId",
          "type": "uint256"
        },
        {
          "internalType": "bytes",
          "name": "_data",
          "type": "bytes"
        }
      ],
      "name": "safeTransferFrom",
      "outputs": [],
      "stateMutability": "nonpayable",
      "type": "function"
    },
    {
      "inputs": [
        {
          "internalType": "address",
          "name": "operator",
          "type": "address"
        },
        {
          "internalType": "bool",
          "name": "approved",
          "type": "bool"
        }
      ],
      "name": "setApprovalForAll",
      "outputs": [],
      "stateMutability": "nonpayable",
      "type": "function"
    },
    {
      "inputs": [
        {
          "internalType": "bytes4",
          "name": "interfaceId",
          "type": "bytes4"
        }
      ],
      "name": "supportsInterface",
      "outputs": [
        {
          "internalType": "bool",
          "name": "",
          "type": "bool"
        }
      ],
      "stateMutability": "view",
      "type": "function",
      "constant": true
    },
    {
      "inputs": [],
      "name": "symbol",
      "outputs": [
        {
          "internalType": "string",
          "name": "",
          "type": "string"
        }
      ],
      "stateMutability": "view",
      "type": "function",
      "constant": true
    },
    {
      "inputs": [
        {
          "internalType": "uint256",
          "name": "",
          "type": "uint256"
        }
      ],
      "name": "tokenAvailable",
      "outputs": [
        {
          "internalType": "bool",
          "name": "",
          "type": "bool"
        }
      ],
      "stateMutability": "view",
      "type": "function",
      "constant": true
    },
    {
      "inputs": [
        {
          "internalType": "uint256",
          "name": "",
          "type": "uint256"
        }
      ],
      "name": "tokenPrice",
      "outputs": [
        {
          "internalType": "uint256",
          "name": "",
          "type": "uint256"
        }
      ],
      "stateMutability": "view",
      "type": "function",
      "constant": true
    },
    {
      "inputs": [
        {
          "internalType": "uint256",
          "name": "tokenId",
          "type": "uint256"
        }
      ],
      "name": "tokenURI",
      "outputs": [
        {
          "internalType": "string",
          "name": "",
          "type": "string"
        }
      ],
      "stateMutability": "view",
      "type": "function",
      "constant": true
    },
    {
      "inputs": [],
      "name": "totalSupply",
      "outputs": [
        {
          "internalType": "uint256",
          "name": "",
          "type": "uint256"
        }
      ],
      "stateMutability": "view",
      "type": "function",
      "constant": true
    },
    {
      "inputs": [
        {
          "internalType": "address",
          "name": "from",
          "type": "address"
        },
        {
          "internalType": "address",
          "name": "to",
          "type": "address"
        },
        {
          "internalType": "uint256",
          "name": "tokenId",
          "type": "uint256"
        }
      ],
      "name": "transferFrom",
      "outputs": [],
      "stateMutability": "nonpayable",
      "type": "function"
    },
    {
      "stateMutability": "payable",
      "type": "receive",
      "payable": true
    },
    {
      "inputs": [
        {
          "internalType": "address",
          "name": "to_",
          "type": "address"
        },
        {
          "internalType": "uint256",
          "name": "price_",
          "type": "uint256"
        },
        {
          "internalType": "string",
          "name": "tokenURI_",
          "type": "string"
        }
      ],
      "name": "createPet",
      "outputs": [
        {
          "internalType": "uint256",
          "name": "",
          "type": "uint256"
        }
      ],
      "stateMutability": "nonpayable",
      "type": "function"
    },
    {
      "inputs": [
        {
          "internalType": "uint256",
          "name": "tokenId_",
          "type": "uint256"
        }
      ],
      "name": "buyPet",
      "outputs": [],
      "stateMutability": "payable",
      "type": "function",
      "payable": true
    },
    {
      "inputs": [
        {
          "internalType": "uint256",
          "name": "tokenId_",
          "type": "uint256"
        }
      ],
      "name": "deletePet",
      "outputs": [
        {
          "internalType": "uint256",
          "name": "",
          "type": "uint256"
        }
      ],
      "stateMutability": "nonpayable",
      "type": "function"
    }
  ],
  "bytecode": "0x60806040523480156200001157600080fd5b506040516200391c3803806200391c8339818101604052810190620000379190620001f2565b8282816000908051906020019062000051929190620000d0565b5080600190805190602001906200006a929190620000d0565b50505033600a60006101000a81548173ffffffffffffffffffffffffffffffffffffffff021916908373ffffffffffffffffffffffffffffffffffffffff1602179055508060099080519060200190620000c6929190620000d0565b5050505062000403565b828054620000de9062000328565b90600052602060002090601f0160209004810192826200010257600085556200014e565b82601f106200011d57805160ff19168380011785556200014e565b828001600101855582156200014e579182015b828111156200014d57825182559160200191906001019062000130565b5b5090506200015d919062000161565b5090565b5b808211156200017c57600081600090555060010162000162565b5090565b6000620001976200019184620002bc565b62000293565b905082815260208101848484011115620001b057600080fd5b620001bd848285620002f2565b509392505050565b600082601f830112620001d757600080fd5b8151620001e984826020860162000180565b91505092915050565b6000806000606084860312156200020857600080fd5b600084015167ffffffffffffffff8111156200022357600080fd5b6200023186828701620001c5565b935050602084015167ffffffffffffffff8111156200024f57600080fd5b6200025d86828701620001c5565b925050604084015167ffffffffffffffff8111156200027b57600080fd5b6200028986828701620001c5565b9150509250925092565b60006200029f620002b2565b9050620002ad82826200035e565b919050565b6000604051905090565b600067ffffffffffffffff821115620002da57620002d9620003c3565b5b620002e582620003f2565b9050602081019050919050565b60005b8381101562000312578082015181840152602081019050620002f5565b8381111562000322576000848401525b50505050565b600060028204905060018216806200034157607f821691505b6020821081141562000358576200035762000394565b5b50919050565b6200036982620003f2565b810181811067ffffffffffffffff821117156200038b576200038a620003c3565b5b80604052505050565b7f4e487b7100000000000000000000000000000000000000000000000000000000600052602260045260246000fd5b7f4e487b7100000000000000000000000000000000000000000000000000000000600052604160045260246000fd5b6000601f19601f8301169050919050565b61350980620004136000396000f3fe6080604052600436106101235760003560e01c806395d89b41116100a0578063c87b56dd11610064578063c87b56dd146103f8578063d4ddce8a14610435578063d749e42914610472578063e985e9c5146104af578063e9974fb0146104ec5761012d565b806395d89b41146103345780639edded111461035f578063a22cb4651461037b578063b2bdfa7b146103a4578063b88d4fde146103cf5761012d565b806323b872dd116100e757806323b872dd1461022b57806342842e0e146102545780635e760e3d1461027d5780636352211e146102ba57806370a08231146102f75761012d565b806301ffc9a71461013257806306fdde031461016f578063081812fc1461019a578063095ea7b3146101d757806318160ddd146102005761012d565b3661012d57600080fd5b600080fd5b34801561013e57600080fd5b5061015960048036038101906101549190612406565b610529565b6040516101669190612898565b60405180910390f35b34801561017b57600080fd5b5061018461060b565b60405161019191906128b3565b60405180910390f35b3480156101a657600080fd5b506101c160048036038101906101bc9190612458565b61069d565b6040516101ce9190612831565b60405180910390f35b3480156101e357600080fd5b506101fe60048036038101906101f99190612363565b610722565b005b34801561020c57600080fd5b5061021561083a565b6040516102229190612b55565b60405180910390f35b34801561023757600080fd5b50610252600480360381019061024d919061225d565b610840565b005b34801561026057600080fd5b5061027b6004803603810190610276919061225d565b6108a0565b005b34801561028957600080fd5b506102a4600480360381019061029f919061239f565b6108c0565b6040516102b19190612b55565b60405180910390f35b3480156102c657600080fd5b506102e160048036038101906102dc9190612458565b6109dd565b6040516102ee9190612831565b60405180910390f35b34801561030357600080fd5b5061031e600480360381019061031991906121f8565b610a8f565b60405161032b9190612b55565b60405180910390f35b34801561034057600080fd5b50610349610b47565b60405161035691906128b3565b60405180910390f35b61037960048036038101906103749190612458565b610bd9565b005b34801561038757600080fd5b506103a2600480360381019061039d9190612327565b610d9d565b005b3480156103b057600080fd5b506103b9610f1e565b6040516103c69190612831565b60405180910390f35b3480156103db57600080fd5b506103f660048036038101906103f191906122ac565b610f44565b005b34801561040457600080fd5b5061041f600480360381019061041a9190612458565b610fa6565b60405161042c91906128b3565b60405180910390f35b34801561044157600080fd5b5061045c60048036038101906104579190612458565b6110f8565b6040516104699190612b55565b60405180910390f35b34801561047e57600080fd5b5061049960048036038101906104949190612458565b611110565b6040516104a69190612b55565b60405180910390f35b3480156104bb57600080fd5b506104d660048036038101906104d19190612221565b611123565b6040516104e39190612898565b60405180910390f35b3480156104f857600080fd5b50610513600480360381019061050e9190612458565b6111b7565b6040516105209190612898565b60405180910390f35b60007f80ac58cd000000000000000000000000000000000000000000000000000000007bffffffffffffffffffffffffffffffffffffffffffffffffffffffff1916827bffffffffffffffffffffffffffffffffffffffffffffffffffffffff191614806105f457507f5b5e139f000000000000000000000000000000000000000000000000000000007bffffffffffffffffffffffffffffffffffffffffffffffffffffffff1916827bffffffffffffffffffffffffffffffffffffffffffffffffffffffff1916145b806106045750610603826111d7565b5b9050919050565b60606000805461061a90612dab565b80601f016020809104026020016040519081016040528092919081815260200182805461064690612dab565b80156106935780601f1061066857610100808354040283529160200191610693565b820191906000526020600020905b81548152906001019060200180831161067657829003601f168201915b5050505050905090565b60006106a882611241565b6106e7576040517f08c379a00000000000000000000000000000000000000000000000000000000081526004016106de90612a95565b60405180910390fd5b6004600083815260200190815260200160002060009054906101000a900473ffffffffffffffffffffffffffffffffffffffff169050919050565b600061072d826109dd565b90508073ffffffffffffffffffffffffffffffffffffffff168373ffffffffffffffffffffffffffffffffffffffff16141561079e576040517f08c379a000000000000000000000000000000000000000000000000000000000815260040161079590612b15565b60405180910390fd5b8073ffffffffffffffffffffffffffffffffffffffff166107bd6112ad565b73ffffffffffffffffffffffffffffffffffffffff1614806107ec57506107eb816107e66112ad565b611123565b5b61082b576040517f08c379a0000000000000000000000000000000000000000000000000000000008152600401610822906129b5565b60405180910390fd5b61083583836112b5565b505050565b60085481565b61085161084b6112ad565b8261136e565b610890576040517f08c379a000000000000000000000000000000000000000000000000000000000815260040161088790612b35565b60405180910390fd5b61089b83838361144c565b505050565b6108bb83838360405180602001604052806000815250610f44565b505050565b60003373ffffffffffffffffffffffffffffffffffffffff16600a60009054906101000a900473ffffffffffffffffffffffffffffffffffffffff1673ffffffffffffffffffffffffffffffffffffffff1614610952576040517f08c379a0000000000000000000000000000000000000000000000000000000008152600401610949906128d5565b60405180910390fd5b600061095e60076116a8565b905061096a60076116a8565b60088190555061097a85826116b6565b61098481846116d4565b83600b6000838152602001908152602001600020819055506001600c600083815260200190815260200160002060006101000a81548160ff0219169083151502179055506109d26007611748565b809150509392505050565b6000806002600084815260200190815260200160002060009054906101000a900473ffffffffffffffffffffffffffffffffffffffff169050600073ffffffffffffffffffffffffffffffffffffffff168173ffffffffffffffffffffffffffffffffffffffff161415610a86576040517f08c379a0000000000000000000000000000000000000000000000000000000008152600401610a7d906129f5565b60405180910390fd5b80915050919050565b60008073ffffffffffffffffffffffffffffffffffffffff168273ffffffffffffffffffffffffffffffffffffffff161415610b00576040517f08c379a0000000000000000000000000000000000000000000000000000000008152600401610af7906129d5565b60405180910390fd5b600360008373ffffffffffffffffffffffffffffffffffffffff1673ffffffffffffffffffffffffffffffffffffffff168152602001908152602001600020549050919050565b606060018054610b5690612dab565b80601f0160208091040260200160405190810160405280929190818152602001828054610b8290612dab565b8015610bcf5780601f10610ba457610100808354040283529160200191610bcf565b820191906000526020600020905b815481529060010190602001808311610bb257829003601f168201915b5050505050905090565b610be281611241565b610c21576040517f08c379a0000000000000000000000000000000000000000000000000000000008152600401610c1890612ab5565b60405180910390fd5b600b6000828152602001908152602001600020543414610c76576040517f08c379a0000000000000000000000000000000000000000000000000000000008152600401610c6d90612935565b60405180910390fd5b600c600082815260200190815260200160002060009054906101000a900460ff16610cd6576040517f08c379a0000000000000000000000000000000000000000000000000000000008152600401610ccd90612a35565b60405180910390fd5b610cdf816109dd565b73ffffffffffffffffffffffffffffffffffffffff166108fc349081150290604051600060405180830381858888f19350505050158015610d24573d6000803e3d6000fd5b50610d6e610d31826109dd565b33836040518060400160405280600f81526020017f436f6e67726174756c6174696f6e73000000000000000000000000000000000081525061175e565b6000600c600083815260200190815260200160002060006101000a81548160ff02191690831515021790555050565b610da56112ad565b73ffffffffffffffffffffffffffffffffffffffff168273ffffffffffffffffffffffffffffffffffffffff161415610e13576040517f08c379a0000000000000000000000000000000000000000000000000000000008152600401610e0a90612975565b60405180910390fd5b8060056000610e206112ad565b73ffffffffffffffffffffffffffffffffffffffff1673ffffffffffffffffffffffffffffffffffffffff16815260200190815260200160002060008473ffffffffffffffffffffffffffffffffffffffff1673ffffffffffffffffffffffffffffffffffffffff16815260200190815260200160002060006101000a81548160ff0219169083151502179055508173ffffffffffffffffffffffffffffffffffffffff16610ecd6112ad565b73ffffffffffffffffffffffffffffffffffffffff167f17307eab39ab6107e8899845ad3d59bd9653f200f220920489ca2b5937696c3183604051610f129190612898565b60405180910390a35050565b600a60009054906101000a900473ffffffffffffffffffffffffffffffffffffffff1681565b610f55610f4f6112ad565b8361136e565b610f94576040517f08c379a0000000000000000000000000000000000000000000000000000000008152600401610f8b90612b35565b60405180910390fd5b610fa08484848461175e565b50505050565b6060610fb182611241565b610ff0576040517f08c379a0000000000000000000000000000000000000000000000000000000008152600401610fe790612a75565b60405180910390fd5b600060066000848152602001908152602001600020805461101090612dab565b80601f016020809104026020016040519081016040528092919081815260200182805461103c90612dab565b80156110895780601f1061105e57610100808354040283529160200191611089565b820191906000526020600020905b81548152906001019060200180831161106c57829003601f168201915b50505050509050600061109a6117ba565b90506000815114156110b05781925050506110f3565b6000825111156110e55780826040516020016110cd92919061280d565b604051602081830303815290604052925050506110f3565b6110ee8461184c565b925050505b919050565b600b6020528060005260406000206000915090505481565b600061111b826118f3565b819050919050565b6000600560008473ffffffffffffffffffffffffffffffffffffffff1673ffffffffffffffffffffffffffffffffffffffff16815260200190815260200160002060008373ffffffffffffffffffffffffffffffffffffffff1673ffffffffffffffffffffffffffffffffffffffff16815260200190815260200160002060009054906101000a900460ff16905092915050565b600c6020528060005260406000206000915054906101000a900460ff1681565b60007f01ffc9a7000000000000000000000000000000000000000000000000000000007bffffffffffffffffffffffffffffffffffffffffffffffffffffffff1916827bffffffffffffffffffffffffffffffffffffffffffffffffffffffff1916149050919050565b60008073ffffffffffffffffffffffffffffffffffffffff166002600084815260200190815260200160002060009054906101000a900473ffffffffffffffffffffffffffffffffffffffff1673ffffffffffffffffffffffffffffffffffffffff1614159050919050565b600033905090565b816004600083815260200190815260200160002060006101000a81548173ffffffffffffffffffffffffffffffffffffffff021916908373ffffffffffffffffffffffffffffffffffffffff160217905550808273ffffffffffffffffffffffffffffffffffffffff16611328836109dd565b73ffffffffffffffffffffffffffffffffffffffff167f8c5be1e5ebec7d5bd14f71427d1e84f3dd0314c0f7b2291e5b200ac8c7c3b92560405160405180910390a45050565b600061137982611241565b6113b8576040517f08c379a00000000000000000000000000000000000000000000000000000000081526004016113af90612995565b60405180910390fd5b60006113c3836109dd565b90508073ffffffffffffffffffffffffffffffffffffffff168473ffffffffffffffffffffffffffffffffffffffff16148061143257508373ffffffffffffffffffffffffffffffffffffffff1661141a8461069d565b73ffffffffffffffffffffffffffffffffffffffff16145b8061144357506114428185611123565b5b91505092915050565b8273ffffffffffffffffffffffffffffffffffffffff1661146c826109dd565b73ffffffffffffffffffffffffffffffffffffffff16146114c2576040517f08c379a00000000000000000000000000000000000000000000000000000000081526004016114b990612ad5565b60405180910390fd5b600073ffffffffffffffffffffffffffffffffffffffff168273ffffffffffffffffffffffffffffffffffffffff161415611532576040517f08c379a000000000000000000000000000000000000000000000000000000000815260040161152990612955565b60405180910390fd5b61153d838383611946565b6115486000826112b5565b6001600360008573ffffffffffffffffffffffffffffffffffffffff1673ffffffffffffffffffffffffffffffffffffffff16815260200190815260200160002060008282546115989190612cc1565b925050819055506001600360008473ffffffffffffffffffffffffffffffffffffffff1673ffffffffffffffffffffffffffffffffffffffff16815260200190815260200160002060008282546115ef9190612c3a565b92505081905550816002600083815260200190815260200160002060006101000a81548173ffffffffffffffffffffffffffffffffffffffff021916908373ffffffffffffffffffffffffffffffffffffffff160217905550808273ffffffffffffffffffffffffffffffffffffffff168473ffffffffffffffffffffffffffffffffffffffff167fddf252ad1be2c89b69c2b068fc378daa952ba7f163c4a11628f55a4df523b3ef60405160405180910390a4505050565b600081600001549050919050565b6116d082826040518060200160405280600081525061194b565b5050565b6116dd82611241565b61171c576040517f08c379a000000000000000000000000000000000000000000000000000000000815260040161171390612a15565b60405180910390fd5b80600660008481526020019081526020016000209080519060200190611743929190611fdc565b505050565b6001816000016000828254019250508190555050565b61176984848461144c565b611775848484846119a6565b6117b4576040517f08c379a00000000000000000000000000000000000000000000000000000000081526004016117ab906128f5565b60405180910390fd5b50505050565b6060600980546117c990612dab565b80601f01602080910402602001604051908101604052809291908181526020018280546117f590612dab565b80156118425780601f1061181757610100808354040283529160200191611842565b820191906000526020600020905b81548152906001019060200180831161182557829003601f168201915b5050505050905090565b606061185782611241565b611896576040517f08c379a000000000000000000000000000000000000000000000000000000000815260040161188d90612af5565b60405180910390fd5b60006118a06117ba565b905060008151116118c057604051806020016040528060008152506118eb565b806118ca84611b3d565b6040516020016118db92919061280d565b6040516020818303038152906040525b915050919050565b6118fc81611cea565b600060066000838152602001908152602001600020805461191c90612dab565b905014611943576006600082815260200190815260200160002060006119429190612062565b5b50565b505050565b6119558383611dfb565b61196260008484846119a6565b6119a1576040517f08c379a0000000000000000000000000000000000000000000000000000000008152600401611998906128f5565b60405180910390fd5b505050565b60006119c78473ffffffffffffffffffffffffffffffffffffffff16611fc9565b15611b30578373ffffffffffffffffffffffffffffffffffffffff1663150b7a026119f06112ad565b8786866040518563ffffffff1660e01b8152600401611a12949392919061284c565b602060405180830381600087803b158015611a2c57600080fd5b505af1925050508015611a5d57506040513d601f19601f82011682018060405250810190611a5a919061242f565b60015b611ae0573d8060008114611a8d576040519150601f19603f3d011682016040523d82523d6000602084013e611a92565b606091505b50600081511415611ad8576040517f08c379a0000000000000000000000000000000000000000000000000000000008152600401611acf906128f5565b60405180910390fd5b805181602001fd5b63150b7a0260e01b7bffffffffffffffffffffffffffffffffffffffffffffffffffffffff1916817bffffffffffffffffffffffffffffffffffffffffffffffffffffffff191614915050611b35565b600190505b949350505050565b60606000821415611b85576040518060400160405280600181526020017f30000000000000000000000000000000000000000000000000000000000000008152509050611ce5565b600082905060005b60008214611bb7578080611ba090612e0e565b915050600a82611bb09190612c90565b9150611b8d565b60008167ffffffffffffffff811115611bf9577f4e487b7100000000000000000000000000000000000000000000000000000000600052604160045260246000fd5b6040519080825280601f01601f191660200182016040528015611c2b5781602001600182028036833780820191505090505b5090505b60008514611cde57600182611c449190612cc1565b9150600a85611c539190612e57565b6030611c5f9190612c3a565b60f81b818381518110611c9b577f4e487b7100000000000000000000000000000000000000000000000000000000600052603260045260246000fd5b60200101907effffffffffffffffffffffffffffffffffffffffffffffffffffffffffffff1916908160001a905350600a85611cd79190612c90565b9450611c2f565b8093505050505b919050565b6000611cf5826109dd565b9050611d0381600084611946565b611d0e6000836112b5565b6001600360008373ffffffffffffffffffffffffffffffffffffffff1673ffffffffffffffffffffffffffffffffffffffff1681526020019081526020016000206000828254611d5e9190612cc1565b925050819055506002600083815260200190815260200160002060006101000a81549073ffffffffffffffffffffffffffffffffffffffff021916905581600073ffffffffffffffffffffffffffffffffffffffff168273ffffffffffffffffffffffffffffffffffffffff167fddf252ad1be2c89b69c2b068fc378daa952ba7f163c4a11628f55a4df523b3ef60405160405180910390a45050565b600073ffffffffffffffffffffffffffffffffffffffff168273ffffffffffffffffffffffffffffffffffffffff161415611e6b576040517f08c379a0000000000000000000000000000000000000000000000000000000008152600401611e6290612a55565b60405180910390fd5b611e7481611241565b15611eb4576040517f08c379a0000000000000000000000000000000000000000000000000000000008152600401611eab90612915565b60405180910390fd5b611ec060008383611946565b6001600360008473ffffffffffffffffffffffffffffffffffffffff1673ffffffffffffffffffffffffffffffffffffffff1681526020019081526020016000206000828254611f109190612c3a565b92505081905550816002600083815260200190815260200160002060006101000a81548173ffffffffffffffffffffffffffffffffffffffff021916908373ffffffffffffffffffffffffffffffffffffffff160217905550808273ffffffffffffffffffffffffffffffffffffffff16600073ffffffffffffffffffffffffffffffffffffffff167fddf252ad1be2c89b69c2b068fc378daa952ba7f163c4a11628f55a4df523b3ef60405160405180910390a45050565b600080823b905060008111915050919050565b828054611fe890612dab565b90600052602060002090601f01602090048101928261200a5760008555612051565b82601f1061202357805160ff1916838001178555612051565b82800160010185558215612051579182015b82811115612050578251825591602001919060010190612035565b5b50905061205e91906120a2565b5090565b50805461206e90612dab565b6000825580601f10612080575061209f565b601f01602090049060005260206000209081019061209e91906120a2565b5b50565b5b808211156120bb5760008160009055506001016120a3565b5090565b60006120d26120cd84612b95565b612b70565b9050828152602081018484840111156120ea57600080fd5b6120f5848285612d69565b509392505050565b600061211061210b84612bc6565b612b70565b90508281526020810184848401111561212857600080fd5b612133848285612d69565b509392505050565b60008135905061214a81613477565b92915050565b60008135905061215f8161348e565b92915050565b600081359050612174816134a5565b92915050565b600081519050612189816134a5565b92915050565b600082601f8301126121a057600080fd5b81356121b08482602086016120bf565b91505092915050565b600082601f8301126121ca57600080fd5b81356121da8482602086016120fd565b91505092915050565b6000813590506121f2816134bc565b92915050565b60006020828403121561220a57600080fd5b60006122188482850161213b565b91505092915050565b6000806040838503121561223457600080fd5b60006122428582860161213b565b92505060206122538582860161213b565b9150509250929050565b60008060006060848603121561227257600080fd5b60006122808682870161213b565b93505060206122918682870161213b565b92505060406122a2868287016121e3565b9150509250925092565b600080600080608085870312156122c257600080fd5b60006122d08782880161213b565b94505060206122e18782880161213b565b93505060406122f2878288016121e3565b925050606085013567ffffffffffffffff81111561230f57600080fd5b61231b8782880161218f565b91505092959194509250565b6000806040838503121561233a57600080fd5b60006123488582860161213b565b925050602061235985828601612150565b9150509250929050565b6000806040838503121561237657600080fd5b60006123848582860161213b565b9250506020612395858286016121e3565b9150509250929050565b6000806000606084860312156123b457600080fd5b60006123c28682870161213b565b93505060206123d3868287016121e3565b925050604084013567ffffffffffffffff8111156123f057600080fd5b6123fc868287016121b9565b9150509250925092565b60006020828403121561241857600080fd5b600061242684828501612165565b91505092915050565b60006020828403121561244157600080fd5b600061244f8482850161217a565b91505092915050565b60006020828403121561246a57600080fd5b6000612478848285016121e3565b91505092915050565b61248a81612cf5565b82525050565b61249981612d07565b82525050565b60006124aa82612bf7565b6124b48185612c0d565b93506124c4818560208601612d78565b6124cd81612f44565b840191505092915050565b60006124e382612c02565b6124ed8185612c1e565b93506124fd818560208601612d78565b61250681612f44565b840191505092915050565b600061251c82612c02565b6125268185612c2f565b9350612536818560208601612d78565b80840191505092915050565b600061254f600e83612c1e565b915061255a82612f55565b602082019050919050565b6000612572603283612c1e565b915061257d82612f7e565b604082019050919050565b6000612595601c83612c1e565b91506125a082612fcd565b602082019050919050565b60006125b8600e83612c1e565b91506125c382612ff6565b602082019050919050565b60006125db602483612c1e565b91506125e68261301f565b604082019050919050565b60006125fe601983612c1e565b91506126098261306e565b602082019050919050565b6000612621602c83612c1e565b915061262c82613097565b604082019050919050565b6000612644603883612c1e565b915061264f826130e6565b604082019050919050565b6000612667602a83612c1e565b915061267282613135565b604082019050919050565b600061268a602983612c1e565b915061269582613184565b604082019050919050565b60006126ad602e83612c1e565b91506126b8826131d3565b604082019050919050565b60006126d0600c83612c1e565b91506126db82613222565b602082019050919050565b60006126f3602083612c1e565b91506126fe8261324b565b602082019050919050565b6000612716603183612c1e565b915061272182613274565b604082019050919050565b6000612739602c83612c1e565b9150612744826132c3565b604082019050919050565b600061275c601483612c1e565b915061276782613312565b602082019050919050565b600061277f602983612c1e565b915061278a8261333b565b604082019050919050565b60006127a2602f83612c1e565b91506127ad8261338a565b604082019050919050565b60006127c5602183612c1e565b91506127d0826133d9565b604082019050919050565b60006127e8603183612c1e565b91506127f382613428565b604082019050919050565b61280781612d5f565b82525050565b60006128198285612511565b91506128258284612511565b91508190509392505050565b60006020820190506128466000830184612481565b92915050565b60006080820190506128616000830187612481565b61286e6020830186612481565b61287b60408301856127fe565b818103606083015261288d818461249f565b905095945050505050565b60006020820190506128ad6000830184612490565b92915050565b600060208201905081810360008301526128cd81846124d8565b905092915050565b600060208201905081810360008301526128ee81612542565b9050919050565b6000602082019050818103600083015261290e81612565565b9050919050565b6000602082019050818103600083015261292e81612588565b9050919050565b6000602082019050818103600083015261294e816125ab565b9050919050565b6000602082019050818103600083015261296e816125ce565b9050919050565b6000602082019050818103600083015261298e816125f1565b9050919050565b600060208201905081810360008301526129ae81612614565b9050919050565b600060208201905081810360008301526129ce81612637565b9050919050565b600060208201905081810360008301526129ee8161265a565b9050919050565b60006020820190508181036000830152612a0e8161267d565b9050919050565b60006020820190508181036000830152612a2e816126a0565b9050919050565b60006020820190508181036000830152612a4e816126c3565b9050919050565b60006020820190508181036000830152612a6e816126e6565b9050919050565b60006020820190508181036000830152612a8e81612709565b9050919050565b60006020820190508181036000830152612aae8161272c565b9050919050565b60006020820190508181036000830152612ace8161274f565b9050919050565b60006020820190508181036000830152612aee81612772565b9050919050565b60006020820190508181036000830152612b0e81612795565b9050919050565b60006020820190508181036000830152612b2e816127b8565b9050919050565b60006020820190508181036000830152612b4e816127db565b9050919050565b6000602082019050612b6a60008301846127fe565b92915050565b6000612b7a612b8b565b9050612b868282612ddd565b919050565b6000604051905090565b600067ffffffffffffffff821115612bb057612baf612f15565b5b612bb982612f44565b9050602081019050919050565b600067ffffffffffffffff821115612be157612be0612f15565b5b612bea82612f44565b9050602081019050919050565b600081519050919050565b600081519050919050565b600082825260208201905092915050565b600082825260208201905092915050565b600081905092915050565b6000612c4582612d5f565b9150612c5083612d5f565b9250827fffffffffffffffffffffffffffffffffffffffffffffffffffffffffffffffff03821115612c8557612c84612e88565b5b828201905092915050565b6000612c9b82612d5f565b9150612ca683612d5f565b925082612cb657612cb5612eb7565b5b828204905092915050565b6000612ccc82612d5f565b9150612cd783612d5f565b925082821015612cea57612ce9612e88565b5b828203905092915050565b6000612d0082612d3f565b9050919050565b60008115159050919050565b60007fffffffff0000000000000000000000000000000000000000000000000000000082169050919050565b600073ffffffffffffffffffffffffffffffffffffffff82169050919050565b6000819050919050565b82818337600083830152505050565b60005b83811015612d96578082015181840152602081019050612d7b565b83811115612da5576000848401525b50505050565b60006002820490506001821680612dc357607f821691505b60208210811415612dd757612dd6612ee6565b5b50919050565b612de682612f44565b810181811067ffffffffffffffff82111715612e0557612e04612f15565b5b80604052505050565b6000612e1982612d5f565b91507fffffffffffffffffffffffffffffffffffffffffffffffffffffffffffffffff821415612e4c57612e4b612e88565b5b600182019050919050565b6000612e6282612d5f565b9150612e6d83612d5f565b925082612e7d57612e7c612eb7565b5b828206905092915050565b7f4e487b7100000000000000000000000000000000000000000000000000000000600052601160045260246000fd5b7f4e487b7100000000000000000000000000000000000000000000000000000000600052601260045260246000fd5b7f4e487b7100000000000000000000000000000000000000000000000000000000600052602260045260246000fd5b7f4e487b7100000000000000000000000000000000000000000000000000000000600052604160045260246000fd5b6000601f19601f8301169050919050565b7f4163636573732044656e69656421000000000000000000000000000000000000600082015250565b7f4552433732313a207472616e7366657220746f206e6f6e20455243373231526560008201527f63656976657220696d706c656d656e7465720000000000000000000000000000602082015250565b7f4552433732313a20746f6b656e20616c7265616479206d696e74656400000000600082015250565b7f496e76616c696420616d6f756e74000000000000000000000000000000000000600082015250565b7f4552433732313a207472616e7366657220746f20746865207a65726f2061646460008201527f7265737300000000000000000000000000000000000000000000000000000000602082015250565b7f4552433732313a20617070726f766520746f2063616c6c657200000000000000600082015250565b7f4552433732313a206f70657261746f7220717565727920666f72206e6f6e657860008201527f697374656e7420746f6b656e0000000000000000000000000000000000000000602082015250565b7f4552433732313a20617070726f76652063616c6c6572206973206e6f74206f7760008201527f6e6572206e6f7220617070726f76656420666f7220616c6c0000000000000000602082015250565b7f4552433732313a2062616c616e636520717565727920666f7220746865207a6560008201527f726f206164647265737300000000000000000000000000000000000000000000602082015250565b7f4552433732313a206f776e657220717565727920666f72206e6f6e657869737460008201527f656e7420746f6b656e0000000000000000000000000000000000000000000000602082015250565b7f45524337323155524953746f726167653a2055524920736574206f66206e6f6e60008201527f6578697374656e7420746f6b656e000000000000000000000000000000000000602082015250565b7f4e6f7420666f722073616c650000000000000000000000000000000000000000600082015250565b7f4552433732313a206d696e7420746f20746865207a65726f2061646472657373600082015250565b7f45524337323155524953746f726167653a2055524920717565727920666f722060008201527f6e6f6e6578697374656e7420746f6b656e000000000000000000000000000000602082015250565b7f4552433732313a20617070726f76656420717565727920666f72206e6f6e657860008201527f697374656e7420746f6b656e0000000000000000000000000000000000000000602082015250565b7f4e6f207375636820746f6b656e20657869737473000000000000000000000000600082015250565b7f4552433732313a207472616e73666572206f6620746f6b656e2074686174206960008201527f73206e6f74206f776e0000000000000000000000000000000000000000000000602082015250565b7f4552433732314d657461646174613a2055524920717565727920666f72206e6f60008201527f6e6578697374656e7420746f6b656e0000000000000000000000000000000000602082015250565b7f4552433732313a20617070726f76616c20746f2063757272656e74206f776e6560008201527f7200000000000000000000000000000000000000000000000000000000000000602082015250565b7f4552433732313a207472616e736665722063616c6c6572206973206e6f74206f60008201527f776e6572206e6f7220617070726f766564000000000000000000000000000000602082015250565b61348081612cf5565b811461348b57600080fd5b50565b61349781612d07565b81146134a257600080fd5b50565b6134ae81612d13565b81146134b957600080fd5b50565b6134c581612d5f565b81146134d057600080fd5b5056fea2646970667358221220b0616c36b34c07e18a262c563e4bd8661891e010fc132b59157c04c16851a67264736f6c63430008040033",
  "immutableReferences": {},
  "source": "// SPDX-License-Identifier: MIT\npragma solidity ^0.8.0;\n\nimport \"@openzeppelin/contracts/token/ERC721/ERC721.sol\";\nimport \"@openzeppelin/contracts/token/ERC721/extensions/ERC721URIStorage.sol\";\nimport \"@openzeppelin/contracts/utils/Counters.sol\";\n\ncontract PetShop is ERC721URIStorage {\n    using Counters for Counters.Counter;\n    Counters.Counter private _tokenIds;\n\n    uint256 public totalSupply;\n\n    string private _baseTokenURI;\n    address public _owner;\n\n    //to store token price\n    mapping(uint256 => uint256) public tokenPrice;\n\n    //whether token is up for sale or no\n    mapping(uint256 => bool) public tokenAvailable;\n\n    constructor(\n        string memory name_,\n        string memory symbol_,\n        string memory baseURI_\n    ) ERC721(name_, symbol_) {\n        _owner = msg.sender;\n        _baseTokenURI = baseURI_;\n    }\n\n    modifier onlyOwner() {\n        require(_owner == msg.sender, \"Access Denied!\");\n        _;\n    }\n\n    receive() external payable {\n        revert();\n    }\n\n    function _baseURI() internal view virtual override returns (string memory) {\n        return _baseTokenURI;\n    }\n\n    function createPet(\n        address to_,\n        uint256 price_,\n        string memory tokenURI_\n    ) public onlyOwner returns (uint256) {\n        //id of first ever token would be 0\n        uint256 newTokenId = _tokenIds.current();\n        totalSupply = _tokenIds.current();\n\n        _safeMint(to_, newTokenId);\n        _setTokenURI(newTokenId, tokenURI_);\n\n        //setting token price\n        tokenPrice[newTokenId] = price_;\n\n        tokenAvailable[newTokenId] = true;\n        _tokenIds.increment();\n        return newTokenId;\n    }\n\n    function buyPet(uint256 tokenId_) public payable {\n        require(_exists(tokenId_), \"No such token exists\");\n        require(msg.value == tokenPrice[tokenId_], \"Invalid amount\");\n        require(tokenAvailable[tokenId_], \"Not for sale\");\n\n        // transfer funds to owner\n        payable(ownerOf(tokenId_)).transfer(msg.value);\n\n        // transfer pet to new user (clears approvals too)\n        _safeTransfer(\n            ownerOf(tokenId_),\n            msg.sender,\n            tokenId_,\n            \"Congratulations\"\n        );\n        tokenAvailable[tokenId_] = false;\n    }\n\n    function deletePet(uint256 tokenId_) public virtual returns (uint256) {\n        // burn tokenId\n        _burn(tokenId_);\n\n        // deleted tokenId\n        return tokenId_;\n    }\n}\n",
  "sourcePath": "D:/p/contracts/PetShop.sol",
  "compiler": {
    "name": "solc",
    "version": "0.8.4+commit.c7e474f2.Emscripten.clang"
  },
  "schemaVersion": "3.4.0",
  "updatedAt": "2021-06-18T19:02:03.098Z",
  "networkType": "ethereum",
  "devdoc": {
    "kind": "dev",
    "methods": {
      "approve(address,uint256)": {
        "details": "See {IERC721-approve}."
      },
      "balanceOf(address)": {
        "details": "See {IERC721-balanceOf}."
      },
      "getApproved(uint256)": {
        "details": "See {IERC721-getApproved}."
      },
      "isApprovedForAll(address,address)": {
        "details": "See {IERC721-isApprovedForAll}."
      },
      "name()": {
        "details": "See {IERC721Metadata-name}."
      },
      "ownerOf(uint256)": {
        "details": "See {IERC721-ownerOf}."
      },
      "safeTransferFrom(address,address,uint256)": {
        "details": "See {IERC721-safeTransferFrom}."
      },
      "safeTransferFrom(address,address,uint256,bytes)": {
        "details": "See {IERC721-safeTransferFrom}."
      },
      "setApprovalForAll(address,bool)": {
        "details": "See {IERC721-setApprovalForAll}."
      },
      "supportsInterface(bytes4)": {
        "details": "See {IERC165-supportsInterface}."
      },
      "symbol()": {
        "details": "See {IERC721Metadata-symbol}."
      },
      "tokenURI(uint256)": {
        "details": "See {IERC721Metadata-tokenURI}."
      },
      "transferFrom(address,address,uint256)": {
        "details": "See {IERC721-transferFrom}."
      }
    },
    "version": 1
  },
  "userdoc": {
    "kind": "user",
    "methods": {},
    "version": 1
  }
}